:020000040000FA
:0400000081312E29F3
:100008007E1480312000911D0A280B284E282400D8
:1000180014190F2810283928941A132814281C2872
:1000280011082000A4002408C300BE01BF0136281F
:1000380011082000A4003E08403E860087012408DD
:1000480081000130BE070030BF3D4108A400A50172
:100058002408A500A40140082407BC0025080318AB
:10006800250ABD00240015164C28141C3C283D28E0
:10007800462811082000A4002408C30042082400D0
:1000880091003628161B49284A284C289101362801
:10009800200091110B1D512852282C2907308E0061
:1000A8008530890B552800000330F0000030F1003E
:1000B80020004E08A400A5012408F2002508F3003A
:1000C8008231AB2280317008013E2000A60026084C
:1000D800CE006430F7000030F8003D08FA003C0814
:1000E800F90082314B22803178082000B700770868
:1000F800B6000A30F7000030F8003D08F3003C086D
:10010800F2006430F0000030F1008231AB2280311F
:100118007108FA007008F90082314B2280317808A2
:100128002000B9007708B8003D08F3003C08F20049
:100138006430F0000030F1008231AB228031710868
:100148002000A8007008A7000A30F0000030F10075
:100158002808F3002708F2008231AB2280317108A9
:100168002000BB007008BA00A901AA0120004E03B4
:10017800031DBF28C028DA282A08803AA400803046
:100188002402031DC928203029020318CC28CD28B1
:10019800D728063020008E003A08443E86008701A2
:1001A80001088C00DA28073020008E0002304E0645
:1001B800031DDF28E028FA282A08803AA4008030A6
:1001C8002402031DE928203029020318EC28ED2811
:1001D800F728053020008E003808443E8600870145
:1001E80001088C00FA28073020008E0003304E06E4
:1001F800031DFF2800291A292A08803AA400803004
:100208002402031D09292030290203180C290D296D
:100218001729033020008E003608443E86008701E7
:1002280001088C001A29073020008E000130A90728
:100238000030AA3D2A08803AA40080302402031D19
:10024800272920302902031C2A292B29BA280B1117
:100258007E100900813130291E30840083308500EA
:1002680044308600003087000B30833129238131E8
:10027800FC0136308400003085000E3083312F2396
:1002880081317E1020008131492970302100990088
:10029800951323008C0121008C0123008D01FF3070
:1002A80021008D00FF3024008D00783021008E0061
:1002B8008030240094002630950016140030200069
:1002C8008E1A02300E1B013EB1003108B5003535DB
:1002D800FE3924009200FE30930021001508F839F9
:1002E80004389500951195121516200095010B11EB
:1002F8008B169111210091158B173F3020000D06A8
:1003080003198729882981298B120D188C298D2991
:1003180091290130BA070030BB3D8D1894299529E1
:100328009929FF30BA07FF30BB3D0D199C299D293B
:10033800A1290130B8070030B93D8D19A429A52994
:10034800A929FF30B807FF30B93D0D1AAC29AD29EE
:10035800B1290130B6070030B73D8D1AB429B52947
:10036800B929FF30B607FF30B73D0430363E860066
:1003780087014131811FC129C229C6290930BA0024
:100388000030BB003B08803AB10080303102031DC9
:10039800CF290A303A02031CD229D329D6292000B2
:1003A800BA01BB010230363E860087014131811F08
:1003B800DE29DF29E42909302000B8000030B9001F
:1003C80020003908803AB10080303102031DEE293F
:1003D8000A303802031CF129F229F5292000B80156
:1003E800B9012000B71FF929FA29FE290930B600FA
:1003F8000030B7003708803AB10080303102031D61
:10040800072A0A303602031C0A2A0B2A0E2A200061
:10041800B601B7010430363E860087012000370850
:10042800AC003608AB006430AD000030AE0082315D
:10043800FE22813120002B08B1002C08B2003908B7
:10044800AC003808AB000A30AD000030AE00823195
:10045800FE22813120002B083107B3002C08323DE1
:10046800B400403F3307BC00413F343DBD008B160C
:1004780003302000B2000830B1007730890B422ADF
:10048800B10B422AB20B422A812981312E29200040
:10049800A101F81F502A512A582AF709F809F70A22
:1004A8000319F80AA101A10AFA1F5B2A5C2A652A26
:1004B800F909FA09F90A0319FA0A0130FB007B085D
:1004C800A106A201A3017708780403196C2A6D2AF2
:1004D8009C2AA001A00A792A0130F735F80D890B6A
:1004E800712A0130FB007B08A007F81F7C2A7D2AAF
:1004F800702A0130A235A30D890B7E2A78087A026A
:10050800031D882A77087902031C8B2A8C2A912AD2
:100518007708F9027808FA3B22140130F836F70C0C
:10052800890B922A0130A002031D9B2A9C2A7D2A4E
:1005380021080319A02AA12AA62AA209A309A20A06
:100548000319A30A2308F8002208F7000800F60197
:10055800F31FAF2AB02AB72AF209F309F20A0319DE
:10056800F30AF601F60AF11FBA2ABB2AC02AF009D3
:10057800F109F00A0319F10A700871040319C52A70
:10058800C62AEF2AF501F50AD22A0130F035F10D15
:10059800890BCA2A0130F4007408F507F11FD52A1F
:1005A800D62AC92A71087302031DDC2A7008720250
:1005B800031CDF2AE02AE42A7008F2027108F33BE0
:1005C8000130F136F00C890BE52A0130F502031DE4
:1005D800EE2AEF2AD62A76080319F32AF42AF92AEA
:1005E800F209F309F20A0319F30A7308F100720811
:1005F800F00008002000AF01B0012B1C042B052BD4
:10060800092B2D08AF072E08B03D0130AD35AE0DD2
:10061800890B0A2B0130AC36AB0C890B0F2B2B083E
:100628002C04031D182B192B012B3008AC002F08A4
:10063800AB0008004034793424343034193412348F
:1006480002347834003410340134FE0012001E00E5
:10065800FE0B2A2B0034640080010131890B302BFA
:0206680000345C
:020000040001F9
:04000E00E43FFF3F8D
:00000001FF
