:020000040000FA
:040000008131A2297F
:100008007E1480312000911D0A280B28D92824004D
:1000180014190F2810289328941A132814281B2819
:1000280011082000C2004208B500B6019028110846
:100038002000C2003608293E860087014208810058
:100048000130C2004208B6072A08C200C3014208AC
:10005800C300C20129084207B00043080318430A35
:10006800B1002B08C2000330C236890B3828420879
:100078000139C3004308A6002B08C2000230C2366B
:10008800890B432842080139C3004308A7002B36CF
:100098000139C2004208A8002B080139C2004208F1
:1000A800B2006430F6000030F7003108F90030087B
:1000B800F8008231E522803177082000A100760817
:1000C800A0000A30F6000030F7003108F3003008CD
:1000D800F2006430F0000030F100833121238031D8
:1000E8007108F9007008F8008231E522803177083C
:1000F8002000A3007608A2000A30F0000030F100CA
:100108003108F3003008F20083312123803171086F
:100118002000A5007008A40024001516D728043074
:10012800203E8600870120002108F1002008F00009
:100138006430F2000030F3008331552380317008B9
:100148002000C2007108C3002308F1002208F00053
:100158000A30F2000030F3008331552380317008F3
:1001680020004207C4007108433DC500403F4407D2
:10017800AE00413F453DAF002400141CC428C528EB
:10018800CE2811082000C2004208B5002E0824001D
:1001980091009028161BD128D228D72820002F0894
:1001A800240091009028200091110B1DDC28DD28E7
:1001B800A02907308E00E43000320032890BE02895
:1001C800003200320330F0000030F1002000410816
:1001D800C200C3014208F2004308F30082319222B0
:1001E80080317008013E2000C4004408C10041036A
:1001F800031DFF280029242906308E00280803192A
:100208000629072916293308373E86008701320850
:10021800C2000630C235FF3E031D0E2942350107D4
:100228008C0024292408373E860087013208C20042
:100238000630C235FF3E031D1D29423501078C00DB
:1002480002304106031D29292A294E2905308E002E
:10025800270803193029312940293308373E8600F9
:1002680087013208C2000630C235FF3E031D382917
:10027800423501078C004E292208373E8600870147
:100288003208C2000630C235FF3E031D47294235F9
:1002980001078C0003304106031D5329542978298E
:1002A80003308E00260803195A295B296A29330866
:1002B800373E860087013208C2000630C235FF3E4D
:1002C800031D6229423501078C0078292008373E32
:1002D800860087013208C2000630C235FF3E031D82
:1002E8007129423501078C0032187B297E292000AC
:1002F8008C17802920008C130130AC070030AD3DED
:100308002D08803AC20080304202031D8D296530D5
:100318002C02031C902991299F2901302000C2003A
:100328004208B3070A303302031C9B299C299D29E4
:10033800B301AC01AD010B117E1009008131A42974
:1003480074308400833085003730860000308700A1
:100358000B3083317F2381312030840000308500C9
:1003680017308331852381317E1020008131BC29EB
:10037800703021009900951323008C0121008C0115
:10038800C03023008D003F3021008D003F30240015
:100398008D00783021008E008030240094002630B3
:1003A80095001614003020008E1A02300E1B013EF4
:1003B800C6004608C8004835FE3924009200FE30C1
:1003C800930021001508F839043895009511951205
:1003D8001516200095010B118B169111210091150E
:1003E8008B173F3020000D060319FB29FC29F5293E
:1003F8008B120D18002A012A052A0130A4070030A3
:10040800A53D8D18082A092A0D2AFF30A407FF30B8
:10041800A53D0D19102A112A152A0130A20700300E
:10042800A33D8D19182A192A1D2AFF30A207FF306B
:10043800A33D0D1A202A212A252A0130A0070030C1
:10044800A13D8D1A282A292A2D2AFF30A007FF301E
:10045800A13D0430203E860087014131811F352AA5
:10046800362A3A2A0930A4000030A5002508803A27
:10047800C60080304602031D432A0A302402031CAA
:10048800462A472A4A2A2000A401A5010230203E14
:10049800860087014131811F522A532A582A093080
:1004A8002000A2000030A30020002308803AC600E4
:1004B80080304602031D622A0A302202031C652A84
:1004C800662A692A2000A201A3012000A11F6D2A23
:1004D8006E2A722A0930A0000030A1002108803A53
:1004E800C60080304602031D7B2A0A302002031C06
:1004F8007E2A7F2A822A2000A001A1018B160530BE
:100508002000C7000F30C600F130890B892AC60BBE
:10051800892AC70B892AF5298131A229F601F31FF7
:10052800962A972A9E2AF209F309F20A0319F30A6E
:10053800F601F60AF11FA12AA22AA72AF009F10951
:10054800F00A0319F10A700871040319AC2AAD2ADC
:10055800D62AF501F50AB92A0130F035F10D890BD3
:10056800B12A0130F4007408F507F11FBC2ABD2A2E
:10057800B02A71087302031DC32A70087202031C93
:10058800C62AC72ACB2A7008F2027108F33B013049
:10059800F136F00C890BCC2A0130F502031DD52A5F
:1005A800D62ABD2A76080319DA2ADB2AE02AF209B4
:1005B800F309F20A0319F30A7308F1007208F0004C
:1005C8000800FB01FC01760877040319EC2AED2AE0
:1005D8001C2BFD01FD0AF92A0130F635F70D890BB0
:1005E800F12A0130FA007A08FD07F71FFC2AFD2AD4
:1005F800F02A0130FB35FC0D890BFE2A77087902B9
:10060800031D082B76087802031C0B2B0C2B112BCF
:100618007608F8027708F93B7B140130F736F60CB8
:10062800890B122B0130FD02031D1B2B1C2BFD2AED
:100638007C08F7007B08F6000800700871040319AD
:10064800262B272B502BF501F50A332B0130F035DB
:10065800F10D890B2B2B0130F4007408F507F11FFD
:10066800362B372B2A2B71087302031D3D2B70087C
:100678007202031C402B412B452B7008F2027108B3
:10068800F33B0130F136F00C890B462B0130F502B3
:10069800031D4F2B502B372B7308F1007208F00005
:1006A8000800F401F501701C5A2B5B2B5F2B7208B4
:1006B800F4077308F53D0130F235F30D890B602B13
:1006C8000130F136F00C890B652B70087104031D9D
:1006D8006E2B6F2B572B7508F1007408F00008007B
:1006E80040347934243430341934123402347834B0
:1006F800003410340134FE0012001E00FE0B802B63
:0E0708000034640080010131890B862B00341F
:020000040001F9
:04000E00E439FF1FB3
:00000001FF
